:020000040800F2
:10000000C84C002071020008BD3D00081B320008EA
:10001000B93D000843080008F1490008000000004D
:10002000000000000000000000000000B101000816
:10003000F50A0008000000000D020008ED3E00086F
:100040008B0200088B0200088B0200088B0200085C
:100050008B0200088B0200088B0200088B0200084C
:100060008B0200088B0200088B0200088B0200083C
:100070008B0200088B0200088B0200088B0200082C
:1000800039090008490900088B0200080000000037
:100090000000000000000000000000008B020008CB
:1000A0008B020008E93F00088B0200088B02000861
:1000B0008B0200088B0200088B0200088B020008EC
:1000C0008B0200088B0200088B0200088B020008DC
:1000D0008B020008D1490008E14900080000000037
:1000E0008B0200088B0200088B0200080000000051
:1000F0000000000000000000000000008B0200086B
:10010000000000008B0200088B0200088B02000830
:1001100000000000000000000000000000000000DF
:100120008B020008590900088B0200088B020008A6
:100130008B0200080000000000000000000000002A
:100140000000000000000000000000008B0200081A
:100150008B0200088B0200088B0200088B0200084B
:100160008B0200088B020008000000000000000065
:10017000000000000000000000000000000000007F
:10018000000000008B0200080000000000000000DA
:100190008B0200088B020008DFF810D000F0FCF89A
:1001A00000480047B54D0008AFF30080C84C002060
:1001B0002C4B19680868B0E8F04F80F30988BFF34A
:1001C0006F8F4FF0000080F311887047000000002F
:1001D00008480068006880F308884FF0000080F34A
:1001E000148862B661B6BFF34F8FBFF36F8F00DF25
:1001F00000BF00BF08ED00E0DFF80C00016841F42B
:1002000070010160704700BF88ED00E0EFF30980E6
:10021000BFF36F8F134B1A681EF0100F08BF20ED4D
:10022000108A20E9F04F106009B44FF0500080F3BD
:100230001188BFF34F8FBFF36F8F05F0E3FA4FF0D4
:10024000000080F3118809BC19680868B0E8F04F15
:100250001EF0100F08BFB0EC108A80F30988BFF3BE
:100260006F8F70471C000020EFF30580704700007F
:100270000648804706480047FEE7FEE7FEE7FEE740
:10028000FEE7FEE7FEE7FEE7FEE7FEE7D53F0008F4
:10029000990100082DE9F05F0546002092469B4633
:1002A00088460646814640241BE02846414647468C
:1002B000224600F061F853465A46C01A914110D3C5
:1002C00011461846224600F048F82D1A67EB01083F
:1002D0004F4622460120002100F03FF817EB0009AD
:1002E0004E41201EA4F10104DFDC484631462A4677
:1002F0004346BDE8F09F40EA01039B0703D009E0B5
:1003000008C9121F08C0042AFAD203E011F8013B01
:1003100000F8013B521EF9D27047D2B201E000F85A
:10032000012B491EFBD270470022F6E710B5134699
:100330000A4604461946FFF7F0FF204610BD10B5E7
:100340004843044604F05AFD002805D00021002C43
:1003500002D0641E0155FAE710BD202A04DB203AC2
:1003600000FA02F1002070479140C2F1200320FA08
:1003700003F3194390407047202A04DB203A21FA06
:1003800002F00021704721FA02F3D040C2F12002AE
:100390009140084319467047064C074D06E0E06857
:1003A00040F0010394E8070098471034AC42F6D3BC
:1003B000FFF7F6FE006000082060000870B50446F4
:1003C0000D464FF6FF732A462146024802F0A9FE69
:1003D00070BD00009C040020F1B50024002500261B
:1003E0000027AA222146641C1C484254FF222146B1
:1003F000641C4254F1222146641C425402222146CC
:10040000641C42549DF800202146641C42549DF80F
:1004100001202146641C4254201F1149C87000BFAE
:1004200007E00E48405D3044C6B2B819C7B2681C38
:10043000C5B20A48C078001DA842F2DC2046611C03
:10044000CCB206490E542046611CCCB203490F546D
:1004500021460248FFF7B2FFF8BD0000A445002086
:10046000D64500203EB504460D460121A068CDE9E1
:10047000005102900B460B226C21206800F0B6FF61
:100480003EBD7FB504460D4600200390022103AA1D
:10049000A068CDE90021029001230C226C21206884
:1004A00000F0A4FF06469DF80D009DF80C1040EAF0
:1004B00001202880304604B070BD000038B50446E5
:1004C00039482060A06808B93220A060A07B08B934
:1004D0000120A073E07B08B90120E073207C08B9FB
:1004E00001202074607C08B901206074A07C08B9E8
:1004F0000120A074E07C08B90120E074207D08B9D7
:1005000001202075607D08B902206075E17B2046DE
:1005100000F0CCF808B1012038BD217C204600F065
:100520009AF808B10120F7E7A27C617C204600F030
:10053000E8F808B10120EFE7E17C204600F031F94E
:1005400008B10120E8E7217D204600F035F808B128
:100550000120E1E7617D204600F04EF908B101205D
:10056000DAE7204600F05DF908B10120D4E7002069
:10057000009069462046FFF775FF08B10120CBE7E0
:100580009DF8000000F0200048B19DF8000000F048
:10059000080020B99DF8000000F0100008B101200B
:1005A000BAE70020B8E700007003002010B518215A
:1005B0000120FFF7C4FE10BD0246092946D2DFE83C
:1005C00001F045050A131C252E374000907D20F0D0
:1005D0001C0090753CE0907D20F018009075907D97
:1005E00040F00400907533E0907D20F01400907589
:1005F000907D40F0080090752AE0907D20F010007A
:100600009075907D40F00C00907521E0907D20F079
:100610000C009075907D40F01000907518E0907D72
:1006200020F008009075907D40F0140090750FE068
:10063000907D20F004009075907D40F0180090753A
:1006400006E0907D40F01C00907501E001207047AD
:1006500000BF0020FBE70246012906D0022909D08D
:10066000032910D004291CD116E0D07D20F00C0302
:10067000D37518E0D07D40F00403D375D07D20F011
:100680000803D3750FE0D07D20F00403D375D07D2F
:1006900040F00803D37506E0D07D40F00C03D3751D
:1006A00001E00120704700BF0020FBE7024601295E
:1006B00006D0022909D0032910D004291CD116E044
:1006C000D07D20F00303D37518E0D07D40F0010306
:1006D000D375D07D20F00203D3750FE0D07D40F0BC
:1006E0000203D375D07D00F00103D37506E0D07D01
:1006F00040F00303D37501E00120704700BF0020E4
:10070000FBE730B503460024012904D0022907D0B5
:10071000032918D10DE0D87D20F03005DD7514E0F7
:10072000D87D40F01005DD75D87D20F02005DD7501
:100730000BE0D87D00F01005DD75D87D40F0200578
:10074000DD75012401E0012030BD00BF3CB3012A6A
:1007500006D0022A09D0032A10D0042A1CD116E0A0
:10076000D87D20F0C005DD7518E0D87D40F040054B
:10077000DD75D87D20F08005DD750FE0D87D20F097
:100780004005DD75D87D40F08005DD7506E0D87D3B
:1007900040F0C005DD7501E00120D5E700BF002075
:1007A000D2E70246012906D0022909D0032910D038
:1007B00004291CD116E0907D20F00300907518E00C
:1007C000907D40F001009075907D20F002009075C2
:1007D0000FE0907D20F001009075907D40F00200C8
:1007E000907506E0907D40F00300907501E00120D7
:1007F000704700BF0020FBE70246012902D0022912
:100800000AD104E0907D20F04000907506E0907DD4
:1008100040F04000907501E00120704700BF0020CB
:10082000FBE73EB50446022204F11601A068CDE9BB
:1008300000120290012307226C21206800F05AFF69
:100840003EBD00BFFEE700002DE9F84F07460C460D
:1008500090464FF00009CA4600250026A346A01D79
:1008600000900425A7F1500010283AD2DFE800F0EC
:100870001608190F1E2326292C2F323939393935FC
:100880004FF0340903254FF0400A01262BE04FF0CA
:100890003D0903254FF02E0A012624E04FF03009D0
:1008A00021E04FF037094FF003081CE04FF03A0900
:1008B0004FF0030817E04FF0410914E04FF04509ED
:1008C00011E04FF049090EE04FF04D090BE04FF0F9
:1008D000510908E04FF0550905E01448D0F80090A0
:1008E00001E0BDE8F88F00BFB8F1030F01D1032587
:1008F00000265DB16A000E4901EB49005946FFF739
:10090000FAFC294648460B4A126890475EB17200CD
:10091000074901EB4A000099FFF7EDFC31465046CC
:10092000044A1268904700BFDBE70000A8000020DF
:10093000844400209400002010B5024800F08AF999
:1009400010BD00008C05002010B5024800F082F9AF
:1009500010BD00002C05002010B5024800F07AF907
:1009600010BD0000EC05002001460878103818235F
:10097000B0FBF3F20848805CC865032A05D9086813
:100980006FF30900001D886503E008686FF3090034
:100990008865886D70470000B85D0008014600203A
:1009A0008A6A8B69CBB932B1012A0DD0022A03D0F1
:1009B000032A10D10EE000BFCB6A03F08073B3F1BD
:1009C000807F00D1012007E0CB6AB3F1C07F00D166
:1009D000012001E000E000BF34E08B69B3F5005F67
:1009E0001AD132B1012A07D0022A03D0032A11D129
:1009F0000AE000BF01200EE0CB6A03F08073B3F180
:100A0000807F00D1012006E0CB6AB3F1C07F00D126
:100A1000012000E000BF15E032B1012A05D0022A12
:100A200004D0032A0CD103E000BF00BF012008E07E
:100A3000CB6A03F08073B3F1807F00D1012000E026
:100A400000BF00BF704730B50468246824F48024D8
:100A500005682C60046863608468402C04D10468D5
:100A6000A2600468E16003E00468A1600468E260D9
:100A700030BD000010B5044802F0C6FE034904482A
:100A80000068FFF7FEFC10BD6846002064460020A9
:100A9000BC00002010B502F059FF03F0ABFFFFF7D8
:100AA00085FD0349086008460068FFF707FD10BD93
:100AB000BC00002000B589B00B49684602F075FE05
:100AC000242269460948FFF716FC094803F0B2FFE3
:100AD00008900648BDF8201081849DF8221080F807
:100AE000261009B000BD0000684600203C460020EA
:100AF000B7000020704710B50446204600F08AFA7F
:100B000010BD72B600BFFEE710B50021154801F018
:100B100045FF0421134801F041FF0821124801F06C
:100B20003DFF0C21104801F039FF00220D499FEDD7
:100B30000F0A0F4803F088F904220A499FED0B0AB7
:100B40000C4803F081F9082207499FED080A0A487A
:100B500003F07AF90C2204499FED040A074803F0D8
:100B600073F910BDC40300200C0400200000000035
:100B700098460020A4460020B0460020BC46002035
:100B800070B50446A56D00F043FB064694F83500A9
:100B9000022808D08020606500BF002084F834005F
:100BA00000BF012070BD2068006820F01600216899
:100BB00008602068406920F0800021684861206C4E
:100BC00008B9A06C28B12068006820F008002168EE
:100BD00008602068006820F001002168086010E0CB
:100BE00000F016FB801B05280BD920206065032030
:100BF00084F8350000BF002084F8340000BF0320D3
:100C0000D0E72068006800F001000028E8D194F8DF
:100C10005C103F208840A860012084F8350000BFA8
:100C2000002084F8340000BF00BFBBE7014691F804
:100C30003500022803D08020486501207047052038
:100C400081F835000868006820F001000A6810602B
:100C50000020F3E7F8B50446002000908C480068B7
:100C60004FF41651B0FBF1F7A56D2E6894F85C10A7
:100C700008208840304098B12068006800F00400E7
:100C800070B12068006820F004002168086094F8C2
:100C90005C1008208840A860606D40F0010060652D
:100CA00094F85C1001208840304068B120684069A9
:100CB00000F0800040B194F85C1001208840A860EA
:100CC000606D40F00200606594F85C10042088407C
:100CD000304068B12068006800F0020040B194F82C
:100CE0005C1004208840A860606D40F004006065DE
:100CF00094F85C1010208840304078B32068006879
:100D000000F0080050B394F85C1010208840A860F0
:100D10002068006800F4802080B12068006800F43A
:100D2000002028B9206CC8B12046216C884715E006
:100D3000A06C98B12046A16C88470FE0206800683D
:100D400000F4807028B92068006820F0080021684D
:100D50000860206C10B12046216C884794F85C1024
:100D6000202088403040002865D02068006800F0CE
:100D7000100000285FD094F85C1020208840A86004
:100D800094F83500052828D12068006820F0160066
:100D9000216808602068406920F08000216848616F
:100DA000206C08B9A06C28B12068006820F0080009
:100DB0002168086094F85C103F208840A8600120FA
:100DC00084F8350000BF002084F8340000BF206D97
:100DD00010B12046216D8847F8BD2068006800F4F6
:100DE000802080B12068006800F4002028B9606C81
:100DF00010B12046616C88471DE0E06BD8B12046F9
:100E0000E16B884717E02068006800F4807068B9DB
:100E10002068006820F0100021680860012084F834
:100E2000350000BF002084F8340000BFE06B10B133
:100E30002046E16B8847606D38B3606D00F00100BB
:100E4000F0B1052084F835002068006820F001002A
:100E50002168086000BF0098401C0090B84200D98B
:100E600005E02068006800F001000028F3D100BF11
:100E7000012084F8350000BF002084F8340000BF52
:100E8000E06C10B12046E16C884700BFA4E7000089
:100E9000180000202DE9F0410446002500F0B8F9C3
:100EA000074614B90120BDE8F081606A00B100BFB7
:100EB000022084F8350000BF002084F8340000BF11
:100EC0002068006820F00100216808600AE000F056
:100ED0009FF9C01B052805D920206065032084F8F0
:100EE0003500E0E72068006800F001000028EED13E
:100EF0002068056821480540D4E901010843E168FC
:100F000008432169084361690843A1690843E1690D
:100F10000843216A08430543606A042803D1D4E9E1
:100F20000B0108430543206805602068456925F0EA
:100F30000705606A0543606A04280DD1A06A05436D
:100F4000E06A48B12046FFF729FD28B140206065DE
:100F5000012084F83500A6E7206845612046FFF7A8
:100F600003FD064694F85C103F208840B0600020E6
:100F70006065012084F83500002094E73F8010F080
:100F80002DE9F04704460D4616461F464FF000086F
:100F9000D4F8589000BF94F83400012802D1022000
:100FA000BDE8F087012084F8340000BF94F83500D4
:100FB000012825D1022084F83500002060653B46D9
:100FC000324629462046FFF73EFD94F85C103F204C
:100FD0008840C9F808002068006840F016002168C1
:100FE0000860206C28B12068006840F00800216883
:100FF00008602068006840F001002168086006E091
:1010000000BF002084F8340000BF4FF002084046C3
:10101000C6E7000070B5044600F0FAF8064625461B
:10102000681C10B104480078054400BF00F0F0F8D7
:10103000801BA842FAD370BD14000020F8B5024608
:101040000B460025002400200021C7E0012606FAF7
:1010500001F51E6806EA0504AC4274D11E7906F05B
:101060000306012E04D01E7906F00306022E13D1CA
:1010700090684F000326BE40B0434F00DE68BE407C
:1010800030439060506801268E40B0431E79C6F30D
:1010900000168E40304350601E7906F00306032E82
:1010A00009D0D0684F000326BE40B0434F009E6871
:1010B000BE403043D0601E7906F00306022E13D1E5
:1010C000CF0802F1200656F827004E07F70E0F262C
:1010D000BE40B0434F07FF0E1E69BE403043CF08ED
:1010E00002F1200646F8270010684F000326BE4094
:1010F000B0431E7906F003064F00BE403043106037
:101100005E6806F44036002E67D000BF00260096C9
:10111000344E366846F48046324F3E603E4636686E
:1011200006F48046009600BF00BF2F4E8F0856F889
:1011300027008E07370F0F26BE40B0432B4EB2421A
:1011400002D1002615E048E0294EB24201D1012625
:101150000FE0284EB24201D102260AE0264EB242EA
:1011600001D1032605E0254EB24201D1042600E05C
:1011700007268F073F0FBE4030431B4E8F0846F8AF
:1011800027001F4E3068A0435E6806F4801606B143
:1011900020431B4E3060361D3068A0435E6806F465
:1011A000001606B12043164E361D3060144E361F11
:1011B0003068A0435E6806F4003606B12043104E46
:1011C000361F3060361F3068A0435E6806F48036F4
:1011D00006B120430A4E083E3060491C1029FFF436
:1011E00035AFF8BD443802400838014000000240E5
:1011F0000004024000080240000C024000100240BF
:10120000083C01400AB1816101E00B048361704731
:1012100001480068704700000C00002070B50446CB
:101220000CB9012070BD94F83D0028B9002084F865
:101230003C00204600F010FB242084F83D0020688C
:10124000006820F00100216808602068006840F410
:101250000040216808602068006820F40040216890
:10126000086000F075FD05465C496068884206D854
:101270005B48854201D2012007E0002005E0594883
:10128000854201D2012000E00020012800D1C9E7F9
:101290005548B5FBF0F62068406820F03F00304329
:1012A000216848604D496068884201D8701C07E099
:1012B0004FF4967070434FF47A71B0FBF1F0401C1C
:1012C0002168096A21F03F01084321680862434907
:1012D0006068884214D8681E61684900B0FBF1F06C
:1012E000401CC0F30B00042801D204203DE0681E1E
:1012F00061684900B0FBF1F0401CC0F30B0034E022
:10130000A06838B9681E616801EB4101B0FBF1F0DB
:10131000401C0AE0681E616801EBC10202EB01118A
:10132000B0FBF1F0401C40F48040C0F30B0008B962
:1013300001201AE0A06848B9681E616801EB41010C
:10134000B0FBF1F0401CC0F30B000CE0681E6168BC
:1013500001EBC10202EB0111B0FBF1F0401CC0F344
:101360000B0040F4804040F400402168C9694CF60D
:10137000FF72914308432168C861D4E9070108431B
:101380002168096821F0C001084321680860D4E998
:10139000031008432168896848F2FF3291430843EB
:1013A00021688860D4E9050108432168C96821F0F3
:1013B000FF0108432168C8602068006840F0010010
:1013C0002168086000202064202084F83D0000206F
:1013D000206384F83E0000BF24E70000A0860100DF
:1013E00080841E0000093D0040420F002DE9FC5F93
:1013F00004460F4690469946DDE90CAB0E9EFFF77A
:1014000007FF054694F83D00202870D119230122DA
:10141000B5492046009502F074F810B10220BDE8ED
:10142000FC9F00BF94F83C00012801D10220F6E7A0
:10143000012084F83C0000BF2068006800F0010033
:1014400028B92068006840F0010021680860206821
:10145000006820F4006021680860222084F83D00C4
:10146000402084F83E0000202064C4F824A0A4F8A2
:101470002AB0608D20859D48E0624B464246394641
:101480002046CDE9006501F0E9FE08B10120C6E77C
:10149000208D88B900BF002001902068406901902C
:1014A00020688069019000BF00BF2068006840F498
:1014B00000702168086040E0208D012818D1206864
:1014C000006820F480602168086000BF002001905F
:1014D00020684069019020688069019000BF00BFCA
:1014E0002068006840F400702168086025E0F8E09A
:1014F000208D022816D12068006820F480602168C1
:1015000008602068006840F400602168086000BF3F
:101510000020019020684069019020688069019056
:1015200000BF0AE000BF00200190206840690190E0
:1015300020688069019000BF00BFC3E0208D0328B0
:101540007ED8208D012815D12A463146204602F04A
:10155000B4F808B1012062E720680069616A087088
:10156000606A401C6062208D401E2085608D401E98
:101570006085A7E0208D02282AD1334600225C49ED
:101580002046009501F0BDFF08B1012047E7206823
:10159000006840F400702168086020680069616A92
:1015A0000870606A401C6062208D401E2085608D3E
:1015B000401E608520680069616A0870606A401C8E
:1015C0006062208D401E2085608D401E608579E020
:1015D0003346002246492046009501F092FF08B1AB
:1015E00001201CE72068006820F480602168086002
:1015F00020680069616A0870606A401C6062208D22
:10160000401E2085608D401E60853346002238498B
:101610002046009501F075FF08B10120FFE6206823
:10162000006840F400702168086020680069616A01
:101630000870606A401C6062208D401E208500E0BA
:1016400010E0608D401E608520680069616A087046
:10165000606A401C6062208D401E2085608D401EA7
:1016600060852FE02A463146204602F026F808B170
:101670000120D4E620680069616A0870606A401C35
:101680006062208D401E2085608D401E6085206830
:101690004069C0F38000A8B1208D032805D12068DF
:1016A000006820F480602168086020680069616A31
:1016B0000870606A401C6062208D401E2085608D2D
:1016C000401E6085208D00287FF438AF202084F8EC
:1016D0003D00002084F83E0000BF84F83C0000BFBD
:1016E0009DE602209BE60000020010000000FFFFC4
:1016F000040001002DE9FC5F04460F469046994620
:10170000DDE90CAB0E9EFFF783FD054694F83D0026
:1017100020287DD1192301224D492046009501F052
:10172000F0FE10B10220BDE8FC9F00BF94F83C0021
:10173000012801D10220F6E7012084F83C0000BF17
:101740002068006800F0010028B92068006840F0B7
:101750000100216808602068006820F400602168AA
:101760000860212084F83D00402084F83E000020DD
:101770002064C4F824A0A4F82AB0608D20853548E0
:10178000E0624B46424639462046CDE9006501F00D
:1017900015FE08B10120C6E731E02A463146204651
:1017A00001F0D0FF50B1206C042805D120680068FA
:1017B00040F40070216808600120B4E7606A007896
:1017C00021680861606A401C6062208D401E20858F
:1017D000608D401E608520684069C0F3800070B154
:1017E000208D60B1606A007821680861606A401CE1
:1017F0006062208D401E2085608D401E6085208D9A
:101800000028CAD12A463146204601F047FE00E0B2
:101810001CE050B1206C042805D12068006840F419
:1018200000702168086001207DE72068006840F4AE
:10183000007021680860202084F83D00002084F8B2
:101840003E0000BF84F83C0000BF6CE702206AE75E
:10185000020010000000FFFF10B586B004461421FE
:1018600001A8FEF761FD3C492068884230D100BFE5
:10187000002000903948006840F0020037490860B5
:101880000846006800F00200009000BF00BF4FF45F
:1018900040700190122002900020039003200490D9
:1018A0000420059001A92E48FFF7C8FB00BF0020C7
:1018B00000902A481030006840F400102749103189
:1018C00008600846006800F40010009000BF41E086
:1018D0002449206888423DD100BF002000901F4865
:1018E000006840F002001D4908600846006800F0EA
:1018F0000200009000BF00BF081501901220029066
:1019000000200390032004900420059001A91448AE
:10191000FFF794FB08200190122002900020039012
:10192000032004900920059001A90D48FFF786FBCC
:1019300000BF0020009009481030006840F480008B
:101940000649103108600846006800F480000090E5
:1019500000BF00BF06B010BD005400403038024048
:101960000004024000580040034800680349097819
:1019700008440149086070470C0000201400002052
:1019800010B50D48006840F400700B490860084627
:10199000006840F4806008600846006840F4807089
:1019A0000860032000F0D6F80F2000F007F800F0E0
:1019B00055F8002010BD0000003C0240F0B587B093
:1019C00004460026002700BF002000901E48006843
:1019D00040F001001C4908600846006800F0010062
:1019E000009000BF00BF01A902A800F089F900F033
:1019F000BFF906461548B6FBF0F0471E14481549D6
:101A0000086040F2E7311348C1604760002101617E
:101A10008160816100F0B2FC054695B90D4800F087
:101A20000FFD05466DB9192000F042F8102C07D2C1
:101A300000222146192000F04FF80748046000E01A
:101A40000125284607B0F0BD4438024040420F004F
:101A5000000001404C0600201000002008B500BF27
:101A6000002000901148006840F480400F49086051
:101A70000846006800F48040009000BF00BF00BF2F
:101A800000200090081F006840F08050091F086087
:101A90000846006800F08050009000BF00BF0022A0
:101AA0000F21901E00F018F808BD000044380240D5
:101AB0000146084600280DDB00BF00BF00F01F03F1
:101AC00001229A4043099B0003F1E023C3F800215F
:101AD00000BF00BF00BF70472DE9F05F80460D4694
:101AE0001646002703F012F9074639462A463346C0
:101AF00001F00700C0F1070ABAF1040F02D94FF054
:101B0000040A01E0C0F1070AD14600F1040ABAF163
:101B1000070F02D24FF0000A01E0A0F1030AD446F9
:101B20004FF0010A0AFA09FAAAF1010A0AEA020ABE
:101B30000AFA0CFA4FF0010B0BFA0CFBABF1010B9C
:101B40000BEA030B4AEA0B042146404603F0E6F891
:101B5000BDE8F09F00BF00F00702064B19684FF682
:101B6000FF031940044B0B4343EA0221014B196068
:101B700000BF70470CED00E00000FA0570B50446A8
:101B80000D460CB9012070BD5848006800F00700F0
:101B9000A84209D255490D700846006800F00700B8
:101BA000A84201D00120EEE7207800F002000228D0
:101BB0001DD1207800F00400042805D14C480068AD
:101BC00040F4E0504A490860207800F008000828F6
:101BD00005D14748006840F46040454908604448E2
:101BE000006820F0F000A1680843414908602078AF
:101BF00000F00100A8B36068012807D13C4808380C
:101C00000068C0F34040B8B90120BCE76068022812
:101C100002D06068032807D1354808380068C0F34F
:101C2000406048B90120AEE7314808380068C0F389
:101C3000400008B90120A6E72D48006820F0030005
:101C4000616808432A490860FFF7E2FA064609E09E
:101C5000FFF7DEFA801B41F28831884202D9032067
:101C600091E707E02248006800F00C006168B0EBE3
:101C7000810FEDD11D48006800F00700A84209D986
:101C80001A490D700846006800F00700A84201D00C
:101C9000012078E7207800F00400042807D11448D8
:101CA000006820F4E050E16808431149086020789A
:101CB00000F00800082808D10D48006820F46040B2
:101CC000216940EAC1000A49086000F061F808494A
:101CD0000968C1F30311074A515CC840064908600E
:101CE00006480068FFF76AFE00204CE7003C02400F
:101CF00008380240C05D00081800002010000020D5
:101D00000F2202600D4A126802F0030242600B4A81
:101D1000126802F0F0028260084A126802F4E0528F
:101D2000C260064A126802F46042D2080261044AA4
:101D3000126802F007020A6070470000083802408B
:101D4000003C024001480068704700001800002075
:101D500000B5FFF7F7FF04490968C1F38221034A80
:101D6000515CC84000BD000008380240D05D00084A
:101D700000B5FFF7E7FF04490968C1F34231034AA0
:101D8000515CC84000BD000008380240D05D00082A
:101D90002DE9F047002400250026A14625480068CB
:101DA00000F00C0020B1042805D008283AD105E045
:101DB000DFF8849039E0DFF8849036E01D48001F9A
:101DC000006800F03F041B48001F006800F480001A
:101DD00078B11A481749091F0968C1F38811A0FB97
:101DE00001700146224600233846FEF753FA0546A5
:101DF0000EE011480F49091F0968C1F38811A0FBC3
:101E000001700146224600233846FEF743FA054694
:101E10000848001F0068C0F30140401C4600B5FBA5
:101E2000F6F902E0DFF8109000BF00BF4846BDE8B9
:101E3000F0870000083802400024F40040787D015B
:101E4000F8B504460CB90120F8BD207800F0010077
:101E5000002874D0F948006800F00C0004280DD068
:101E6000F648006800F00C00082813D1F348001F62
:101E7000006800F48000B0F5800F0BD1EF480838FF
:101E80000068C0F34040002859D06068002856D14F
:101E90000120D9E700BF6068B0F5803F08D1E7486E
:101EA0000838006840F48030E449083908601EE0D2
:101EB0006068B0F5A02F0DD1E0480838006840F404
:101EC0008020DE49083908600846006840F4803008
:101ED00008600CE0D9480838006820F48030D74901
:101EE000083908600846006820F48020086000BFB8
:101EF000606890B1FFF78CF9054606E0FFF788F9B6
:101F0000401B642801D903209EE7CC4808380068AC
:101F1000C0F340400028F1D011E0FFF779F9054601
:101F200006E0FFF775F9401B642801D903208BE711
:101F3000C24808380068C0F340400028F1D120783A
:101F400000F0020002285FD1BC48006800F00C00DD
:101F500058B1BA48006800F00C0008281CD1B748F6
:101F6000001F006800F48000B0B9B4480838006869
:101F7000C0F3400020B1E068012801D0012063E7F0
:101F8000AE480838006820F0F800216940EAC10036
:101F9000AA490839086037E0E06800B30120A84981
:101FA0000860FFF735F9054606E0FFF731F9401BF9
:101FB000022801D9032047E7A04808380068C0F389
:101FC00040000028F1D09D480838006820F0F80053
:101FD000216940EAC10099490839086014E00020ED
:101FE00097490860FFF714F9054606E0FFF710F976
:101FF000401B022801D9032026E7904808380068D2
:10200000C0F340000028F1D1207800F00800082833
:102010002CD16069A8B101208A490860FFF7F8F85F
:10202000054606E0FFF7F4F8401B022801D903201B
:102030000AE782486C300068C0F340000028F1D005
:1020400014E000207F490860FFF7E2F8054606E04B
:10205000FFF7DEF8401B022801D90320F4E6774899
:102060006C300068C0F340000028F1D1207800F007
:102070000400042870D1002770483830006800F050
:10208000805090B900BF002000906C483830006844
:1020900040F080506949383108600846006800F017
:1020A0008050009000BF00BF01276748006800F41F
:1020B0008070B0B96448006840F48070624908607C
:1020C000FFF7A6F8054606E0FFF7A2F8401B022836
:1020D00001D90320B8E65C48006800F4807000284D
:1020E000F2D000BFA068012808D1544868300068C9
:1020F00040F001005149683108601DE0A0680528E2
:102100000DD14E486830006840F004004B496831FA
:1021100008600846006840F0010008600CE047488D
:102120006830006820F001004449683108600846C2
:10213000006820F00400086000BFA068A8B1FFF7A5
:1021400067F8054609E0FFF763F8401B41F2883164
:10215000884202D9032077E626E0384868300068D4
:10216000C0F340000028EED013E0FFF751F8054619
:1021700008E0FFF74DF8401B41F28831884201D951
:10218000032061E62D4868300068C0F34000002855
:10219000EFD1012F07D129483830006820F0805056
:1021A00026493831086000BFA069002845D023487F
:1021B000006800F00C0008285DD0A069022845D115
:1021C00000201F490866FFF723F8054606E0FFF7E1
:1021D0001FF8401B022801D9032035E617480838AC
:1021E0000068C0F340600028F1D1D4E9070108433A
:1021F000616A40EA81110122A06AC2EB500041EA03
:1022000000412C20005D41EA00600C49091F086074
:1022100001200B490866FEF7FBFF054606E0FEF7C6
:10222000F7FF401B022801D903200DE603480838B8
:102230000068C0F340600028F1D049E0083802404F
:1022400000004742800E47420070004000202149B4
:102250000866FEF7DDFF054606E0FEF7D9FF401BE6
:10226000022801D90320EFE51B480068C0F3406055
:102270000028F2D12CE0A069012800D1E4E516483D
:10228000001D0668A069012820D006F48001E069DD
:1022900081421BD106F03F01206A814216D147F6E8
:1022A000C0703040616AB0EB811F0FD106F440313D
:1022B0000122A06AC2EB5000B1EB004F06D106F03C
:1022C00070612C20005DB1EB006F01D00120BBE5F7
:1022D0000020B9E5000047420038024070477047CF
:1022E00030B502460B4600BF92F83C00012801D1F0
:1022F000022030BD012082F83C0000BF022082F89D
:102300003D00106844681068816824F07004186803
:10231000044310684460144D1068A84213D010683C
:10232000B0F1804F0FD0114D1068A8420BD0104D66
:102330001068A84207D00F4D1068A84203D00E4D78
:102340001068A84205D121F0800158680143106847
:102350008160012082F83D0000BF002082F83C002F
:1023600000BF00BFC5E700000000014000040040BE
:1023700000080040000C00400040014010B5044639
:102380000CB9012010BD94F83D0028B9002084F854
:102390003C00204600F026F8022084F83D00211D74
:1023A000206801F029FE012084F8460000BF84F86F
:1023B0003E0001213F20015540200155412001559B
:1023C00000BF00BF012084F8420043200155442093
:1023D00001554520015500BF012084F83D00002033
:1023E000D0E7000008B50168B1F1804F0FD100BF00
:1023F000002100911049096841F001010E4A116065
:102400001146096801F00101009100BF13E00B4A79
:10241000016891420FD100BF00210091064909686F
:1024200041F00201044A11601146096801F00201FD
:10243000009100BF00BF08BD4038024000040040CA
:10244000014691F83D00012801D00120704702208B
:1024500081F83D000868C06840F001000B68D86052
:10246000164B0868984213D00868B0F1804F0FD01F
:10247000134B086898420BD0124B0868984207D05B
:10248000114B0868984203D0104B086898420CD151
:102490000868806800F00702062A0CD00868006807
:1024A00040F001000B68186005E00868006840F023
:1024B00001000B6818600020C8E700000000014020
:1024C0000004004000080040000C004000400140B3
:1024D0002DE9F04104460D46002700BF94F83C006A
:1024E000012802D10220BDE8F081012084F83C00DF
:1024F00000BF022084F83D002068866826F0770639
:1025000026F47F46206886602868502833D00CDC8B
:10251000202850D004DC00284BD0102851D149E0AD
:10252000302849D040284CD139E060282DD070287F
:1025300007D0B0F5805F03D0B0F5005F41D10DE06A
:1025400041E0D5E902136A68206801F0BCFD20680B
:10255000866846F077062068866034E0D5E9021385
:102560006A68206801F0AFFD2068806840F4804010
:102570002168886027E0EA686968206801F074FED5
:102580005021206801F0AAFD1DE0EA686968206812
:1025900001F07DFE6021206801F0A0FD13E0EA68F3
:1025A0006968206801F060FE4021206801F096FD16
:1025B00009E000BF00BF00BF2968206801F08EFD60
:1025C00001E0012700BF00BF012084F83D0000BFEB
:1025D000002084F83C0000BF384684E7704770B59F
:1025E00004462068C5682068066906F002000228D3
:1025F00019D105F00200022815D1401F2168086199
:10260000012020772068806900F0030018B120467F
:10261000FFF7E4FF05E0204600F008F9204600F04F
:10262000BCF90020207706F00400042819D105F039
:102630000400042815D1C0432168086102202077D6
:102640002068806900F4407018B12046FFF7C6FF8B
:1026500005E0204600F0EAF8204600F09EF9002050
:10266000207706F00800082819D105F0080008288E
:1026700015D1C04321680861042020772068C06913
:1026800000F0030018B12046FFF7A8FF05E0204640
:1026900000F0CCF8204600F080F90020207706F00A
:1026A0001000102819D105F01000102815D1C043D2
:1026B00021680861082020772068C06900F4407014
:1026C00018B12046FFF78AFF05E0204600F0AEF87B
:1026D000204600F062F90020207706F0010048B1A2
:1026E00005F0010030B16FF001002168086120465B
:1026F00000F0CAF906F08000802809D105F08000BA
:10270000802805D1C043216808612046FFF7E6FD17
:1027100006F04000402809D105F04000402805D1CE
:10272000C04321680861204600F0BAF906F0200095
:10273000202809D105F02000202805D1C0432168B8
:1027400008612046FFF7CBFD70BD000010B586B0D4
:102750000446142101A8FDF7E7FD2068B0F1804F81
:102760001DD100BF002000902C48006840F00100FF
:102770002A4908600846006800F00100009000BF88
:1027800000BF0320019002200290002003900490DB
:102790000120059001A92248FEF750FC3CE02149A8
:1027A0002068884238D100BF002000901B48006894
:1027B00040F00100194908600846006800F0010077
:1027C000009000BF00BF00BF0020009008460068D6
:1027D00040F0020008600846006800F00200009027
:1027E00000BF00BFC0200190022002900020039093
:1027F00004900220059001A90948FEF71FFC032060
:102800000190022002900020039004900220059085
:1028100001A90548FEF712FC06B010BD3038024091
:1028200000000240000400400004024070472DE90F
:10283000F04104460D461646002700BF94F83C00C0
:10284000012802D10220BDE8F081012084F83C007B
:1028500000BF36B1042E1BD0082E31D00C2E5ED115
:1028600045E02946206801F043FC2068806940F07B
:102870000800216888612068806920F004002168D0
:10288000886120688069296908432168886148E077
:102890002946206801F05CFC2068806940F40060F3
:1028A000216888612068806920F4806021688861DF
:1028B00020688069296940EA01202168886130E048
:1028C0002946206801F078FC2068C06940F00800C3
:1028D0002168C8612068C06920F004002168C861CF
:1028E0002068C069296908432168C86119E0294640
:1028F000206801F095FC2068C06940F40060216800
:10290000C8612068C06920F480602168C8612068BF
:10291000C069296940EA01202168C86101E00127F6
:1029200000BF00BF00BF002084F83C0000BF384655
:1029300089E710B504460CB9012010BD94F83D009C
:1029400028B9002084F83C00204600F025F8022039
:1029500084F83D00211D206801F04EFB012084F821
:10296000460000BF84F83E0001213F200155402071
:1029700001554120015500BF00BF012084F84200ED
:1029800043200155442001554520015500BF012039
:1029900084F83D000020D0E77047704770B50446CA
:1029A0000D4615B994F83E000BE0042D02D13F20EE
:1029B000005D06E0082D02D14020005D01E04120CD
:1029C000005D012801D0012070BD1DB9022084F8EE
:1029D0003E000EE0042D03D102213F20015508E006
:1029E000082D03D102214020015502E0022141209F
:1029F000015501222946206801F054FB1D49206839
:102A0000884201D1012000E0002028B12068406CFC
:102A100040F400402168486416492068884213D079
:102A20002068B0F1804F0FD01349206888420BD046
:102A300012492068884207D011492068884203D093
:102A40001049206888420CD12068806800F0070691
:102A5000062E0CD02068006840F001002168086054
:102A600005E02068006840F001002168086000204F
:102A7000AAE70000000001400004004000080040F8
:102A8000000C00400040014010B504460349206896
:102A9000884201D1FEF768FF10BD00000000014030
:102AA00070477047704700002DE9F84F04462068D2
:102AB00005682068C668206847694FF00009CA4663
:102AC00005F00F09B9F1000F0AD105F0200038B167
:102AD00006F0200020B1204601F0E3FCBDE8F88FAD
:102AE000B9F1000F7CD007F0010018B906F490701E
:102AF000002875D005F0010030B106F4807018B1DF
:102B0000606C40F00100606405F0040030B107F033
:102B1000010018B1606C40F00200606405F0020032
:102B200030B107F0010018B1606C40F0040060643F
:102B300005F0080048B106F0200010B907F00100C8
:102B400018B1606C40F008006064606C002846D0EA
:102B500005F0200028B106F0200010B1204601F059
:102B6000A0FC20684069C0F3801A606C00F0080087
:102B700010B9BAF1000F2DD0204601F039FC2068C1
:102B8000406900F04000402820D100BF00BF21680C
:102B9000143151E8001F21F040002168143141E850
:102BA0000002002AF3D100BFE06B50B17F48E16B17
:102BB0000865E06BFEF73AF888B1E06B016D884775
:102BC0000DE02046FFF76EFF09E009E02046FFF721
:102BD00069FF04E02046FFF765FF002060647DE7A1
:102BE000206B012878D105F01000002874D006F081
:102BF00010000028FAD000BF002000902068006874
:102C0000009020684068009000BF00BF20684069C5
:102C100000F04000402870D1E06B006840681FFA67
:102C200080F8B8F1000F58D0A08D404555DDA4F8CC
:102C30002E80E06BC069B0F5807F43D000BF00BF3D
:102C400021680C3151E8001F21F4807021680C319B
:102C500041E80002002AF3D100BF00BF00BF216895
:102C6000143151E8001F21F001002168143141E8BE
:102C70000002002AF3D100BF00BF00BF2168143159
:102C800051E8001F21F040002168143141E80002A2
:102C9000002AF3D100BF202084F8420000202063E6
:102CA00000BF00BF21680C3151E8001F21F0100067
:102CB00021680C3141E80002002AF3D100BFE06B2B
:102CC000FDF75EFF02206063A08DE28D801A81B265
:102CD0002046FFF7E6FE0EE052E0A08D40450AD107
:102CE000E06BC069B0F5807F05D102206063A18DE3
:102CF0002046FFF7D6FEF1E6FFE7A08DE18D401AF2
:102D00001FFA80F8E08DD0B3B8F1000F37D000BFC4
:102D100000BF21680C3151E8001F21F49070216838
:102D20000C3141E80002002AF3D100BF00BF00BF10
:102D30002168143151E8001F21F00100216814318D
:102D400041E80002002AF3D100BF202084F84200AD
:102D50000020206300BF00BF21680C3151E8001F34
:102D600021F0100021680C3141E80002002AF3D163
:102D700000BF0220606341462046FFF792FEADE6A9
:102D800005F0800030B106F0800018B1204601F057
:102D9000A9FDA3E605F0400030B106F0400018B1EF
:102DA000204601F05BFB99E600BF97E6B7420008BA
:102DB00010B504460CB9012010BDA06900B100E0B7
:102DC00000BF94F8410028B9002084F84000204654
:102DD00000F02AF8242084F841002068C06820F41C
:102DE00000502168C860204601F0DAFB20680069C5
:102DF00020F49040216808612068406920F02A0092
:102E0000216848612068C06840F400502168C860AB
:102E100000206064202084F8410084F842000020F3
:102E2000606300BFC8E7000010B586B004461421F7
:102E300001A8FDF779FA89492068884238D100BF96
:102E4000002000908648006840F010008449086027
:102E50000846006800F01000009000BF00BF00BFEF
:102E6000002000907E481438006840F002007C4941
:102E7000143908600846006800F00200009000BFA6
:102E800000BFC02001900220029000200390032088
:102E900004900720059001A97248FEF7CFF80022A0
:102EA00005212520FEF718FE2520FEF701FED2E0C1
:102EB0006D49206888427DD100BF0020009068489D
:102EC000001F006840F400306549091F086008468B
:102ED000006800F40030009000BF00BF00BF002079
:102EE00000905F481438006840F001005C491439D4
:102EF00008600846006800F00100009000BF00BFB5
:102F00000C200190022002900020039003200490E6
:102F10000720059001A95548FEF790F854485549F7
:102F200008604FF0006048604021524881600021F5
:102F3000C1604FF480610161002141618161C16123
:102F40004FF40031016200214162FDF7A3FF08B197
:102F5000FDF7D7FD00BF4748A063846300BF444826
:102F60001838454908604FF0006048600021424829
:102F70008160C1604FF48061016100214161816124
:102F8000C1614FF40031016200214162FDF782FF0F
:102F900008B1FDF7B6FD00BF3748E063846300BFAA
:102FA000002205212620FEF797FD2620FEF780FD52
:102FB00051E0FFE73149206888424CD100BF002032
:102FC00000902748006840F0200025490860084626
:102FD000006800F02000009000BF00BF00BF00208C
:102FE00000901F481438006840F001001C49143953
:102FF00008600846006800F00100009000BF00BFB4
:103000004FF4C05001900220029000200390032052
:1030100004900820059001A91448FEF70FF81848FD
:103020001849086080054860002116488160C16029
:103030004FF480610161002141618161C1610162E0
:103040004162FDF727FF08B1FDF75BFD00BF0D48AA
:10305000E063846300BF06B010BD000000100140B3
:103060004438024000040240004400400000024096
:10307000A06002402C0500208C05002000140140B7
:1030800028640240EC05002070B504460D46164643
:1030900094F8420020280BD105B10EB9012070BD73
:1030A0000020206332462946204601F08FFBF6E7D8
:1030B0000220F4E770B504460D46164694F8420027
:1030C00020280BD105B10EB9012070BD002020636E
:1030D00032462946204601F0E5FBF6E70220F4E7F8
:1030E00070B5044600260A4884420AD1094805788A
:1030F000284601F0E1FC012206490548FFF7DAFF06
:1031000005E00548844202D1044801F07FFC70BD0F
:1031100054040020B2000020E4040020B30000208A
:1031200070472DE9F84F04460E46174699464FF072
:10313000000A94F84100202850D106B117B90120A7
:10314000BDE8F88F00206064212084F84100FEF77C
:103150005FF88246A784E784A068B0F5805F04D159
:10316000206910B90025B04602E035464FF000084E
:103170001EE05346002280212046CDF8009001F049
:10318000E1FB20B1202084F841000320D8E745B9B5
:10319000B8F80000C0F308002168486008F1020890
:1031A00003E02878216848606D1CE08C401EE084B4
:1031B000E08C0028DDD15346002240212046CDF886
:1031C000009001F0BFFB20B1202084F841000320D3
:1031D000B6E7202084F841000020B1E70220AFE7E5
:1031E00010B5034693F84100202813D101B10AB964
:1031F000012010BD19629A84DA84002058642120CD
:1032000083F841001868C06840F080001C68E060E6
:103210000020EEE70220ECE7704700BFFEE7014622
:1032200008684069C0F38020B0B16FF480600A681C
:10323000506100200863202081F83D00002081F8C3
:103240003E00086C40F00400086400BF002081F8D4
:103250003C0000BF012070470020FCE72DE9F84347
:1032600004460F4615469946DDE908862068006841
:1032700040F48060216808602068006840F4807035
:1032800021680860434600224FF001112046009655
:1032900000F037F960B12068006800F48070B0F584
:1032A000807F02D14FF4007020640320BDE8F883D2
:1032B00007F0FE0021680861334642463E49204639
:1032C00000F07EF908B10120F0E700BF0020009077
:1032D00020684069009020688069009000BF00BFAE
:1032E00032464146204600F02DFA50B1206C0428A9
:1032F00005D12068006840F4007021680860012052
:10330000D4E7B9F1010F03D1E8B22168086117E0F1
:10331000C5F307202168086132464146204600F087
:1033200011FA50B1206C042805D12068006840F4DF
:103330000070216808600120B8E7E8B221680861E0
:1033400032464146204600F0FDF950B1206C042879
:1033500005D12068006840F40070216808600120F1
:10336000A4E72068006840F4807021680860434644
:1033700000224FF001112046009600F0C2F858B12B
:103380002068006800F48070B0F5807F02D14FF4AF
:1033900000702064032089E7F8B240F00100216842
:1033A0000861334642460449204600F009F908B155
:1033B00001207BE7002079E7020001002DE9F843B6
:1033C0000446884615469946DDE908672068006886
:1033D00040F4807021680860334600224FF00111EC
:1033E0002046009700F08DF860B12068006800F476
:1033F0008070B0F5807F02D14FF40070206403200C
:10340000BDE8F88308F0FE00216808613B463246BB
:103410002149204600F0D4F808B10120F0E700BFB0
:10342000002000902068406900902068806900902A
:1034300000BF00BF3A463146204600F083F950B144
:10344000206C042805D12068006840F400702168D1
:1034500008600120D4E7B9F1010F03D1E8B2216877
:10346000086117E0C5F30720216808613A46314634
:10347000204600F067F950B1206C042805D120687F
:10348000006840F40070216808600120B8E7E8B2E5
:10349000216808610020B3E70200010070B504460E
:1034A0000D46164625E02046FFF7B9FE08B101207B
:1034B00070BD681CE8B1FDF7ABFE801BA84200D8C8
:1034C000BDB920684069C0F3800090B90020206336
:1034D000202084F83D00002084F83E00206C40F05D
:1034E0002000206400BF002084F83C0000BF0120C1
:1034F000DEE720684069C0F380000028D3D00020B8
:10350000D6E72DE9F04104460D4617461E46DDF884
:10351000188038E0701CA8B3FDF77AFEA0EB080015
:10352000B04200D876BBC5F3074001280AD1206815
:103530004069A9B20840A9B2884201D101200BE03C
:10354000002009E020688069A9B20840A9B2884239
:1035500001D1012000E00020B84214D100202063F6
:10356000202084F83D00002084F83E00206C40F0CC
:103570002000206400BF002084F83C0000BF012030
:10358000BDE8F081FFE7C5F3074001280AD12068B4
:103590004069A9B20840A9B2884201D101200BE0DC
:1035A000002009E020688069A9B20840A9B28842D9
:1035B00001D1012000E00020B842ABD00020DFE7BD
:1035C0002DE9F04104460D4616461F4658E0206896
:1035D0004069C0F38020E8B12068006840F40070C2
:1035E000216808606FF480602168486100202063D2
:1035F000202084F83D00002084F83E00206C40F03C
:103600000400206400BF002084F83C0000BF0120BB
:10361000BDE8F081701C90B3FDF7FAFDC01BB0420D
:1036200000D866BBC5F3074001280AD1206840696D
:10363000A9B20840A9B2884201D101200BE00020C4
:1036400009E020688069A9B20840A9B2884201D186
:10365000012000E0002090B900202063202084F8A1
:103660003D00002084F83E00206C40F020002064E3
:1036700000BF002084F83C0000BF0120C8E7FFE73E
:10368000C5F3074001280AD120684069A9B2084063
:10369000A9B2884201D101200BE0002009E0206896
:1036A0008069A9B20840A9B2884201D1012000E096
:1036B000002000288BD00020AAE770B504460D46F4
:1036C000164637E020684069C0F30010A0B16FF0E3
:1036D00010002168486100202063202084F83D000C
:1036E000002084F83E00206C206400BF002084F895
:1036F0003C0000BF012070BDFDF78AFD801BA84281
:1037000000D8BDB920684069C0F3801090B900208E
:103710002063202084F83D00002084F83E00206CC7
:1037200040F02000206400BF002084F83C0000BF6F
:103730000120E0E720684069C0F380100028C1D074
:103740000020D8E770B504460D46164625E0204611
:10375000FFF765FD08B1012070BD681CE8B1FDF7F9
:1037600057FD801BA84200D8BDB920684069C0F34E
:10377000C01090B900202063202084F83D00002074
:1037800084F83E00206C40F02000206400BF002040
:1037900084F83C0000BF0120DEE720684069C0F3E8
:1037A000C0100028D3D00020D6E730B589B0054638
:1037B0000C4694ED060A8DED000A94ED070A8DED96
:1037C000010A94ED080A8DED020A94ED000A8DEDD0
:1037D000030A94ED010A8DED040A94ED020A8DEDC1
:1037E000050A94ED030A8DED060A94ED040A8DEDA9
:1037F000070A94ED050A8DED080A24226946284639
:10380000FCF779FD09B030BD014600204A4A127824
:10381000002A7CD0484A127802F0010202B300BFAD
:1038200016E000F13402454B33F9122000EE102A65
:10383000B8EEC00ADFED420A80EE201AB3EE000AAD
:1038400021EE000A01EB800282ED000A421CD0B298
:103850000328E6DB384A127822F00102364B1A7050
:10386000354A127802F0020212B3002018E000F18B
:103870003702324B33F9122000EE102AB8EEC00A9C
:10388000DFED2F0A80EE201A9FED2E0A21EE000AAE
:1038900001F10C0202EB800282ED000A421CD0B260
:1038A0000328E4DB244A127822F00202224B1A7029
:1038B000214A127802F0040212B3002018E000F14D
:1038C0003D021E4B33F9122000EE102AF8EEC00A1A
:1038D0009FED1B1A80EE810ADFED1B0A20EE200A05
:1038E00001F1180202EB800282ED000A421CD0B204
:1038F0000328E4DB104A127822F004020E4B1A70FF
:103900000D4A127802F008020AB100200BE012E022
:1039100000F13A02094B33F9123001F1240242F866
:103920002030421CD0B20328F2DB034A127822F086
:103930000802014B1A707047AC000020844400203C
:10394000000000470000FA440000344310B5502145
:10395000002001F08FF80A4801F0A2F9094801F0AF
:103960009FF8094801F07AF8042208490848FFF74F
:10397000A1FB012207490848FFF79CFB10BD00008E
:10398000313E0008C13D0008F70A0008AE000020E3
:103990009C040020B20000205404002008B500BFA1
:1039A000002000901A48006840F400101849086090
:1039B0000846006800F40010009000BF00BF00BF80
:1039C000002000900846006840F480000860084627
:1039D000006800F48000009000BF00BF00220521B5
:1039E0001020FEF779F81020FEF762F8002205217A
:1039F0001120FEF771F81120FEF75AF80022052178
:103A00003920FEF769F83920FEF752F808BD0000AA
:103A10003038024000B595B01C2212490EA8FCF7C0
:103A20006AFC00210EA801F030FA0F4908601C2240
:103A30000C491C3107A8FCF75EFC002107A801F027
:103A400024FA0A4908601C22064938316846FCF706
:103A500052FC0021684601F018FA0549086015B0CB
:103A600000BD0000645D0008080000200000002088
:103A70000400002000B587B0142102A8FCF754FC14
:103A800000BF002001901F48006840F080001D49E1
:103A900008600846006800F08000019000BF00BF89
:103AA00000BF002001900846006840F00100086057
:103AB0000846006800F00100019000BF00BF00BF91
:103AC000002001900846006840F0020008600846A7
:103AD000006800F00200019000BF00BF01224FF417
:103AE00040510948FDF78EFB4FF4405002900120F1
:103AF000039002200490059002A90348FDF79EFA66
:103B000007B000BD303802400004024010B50B4839
:103B10000B4908600B484860002109488160C1607A
:103B20004FF480410161002141618161C161016205
:103B3000FDF774FB08B1FCF7E4FF10BD0054004032
:103B40001C030020A086010010B50B480B4908603B
:103B50000B484860002109488160C1604FF48041F2
:103B60000161002141618161C1610162FDF756FB84
:103B700008B1FCF7C6FF10BD0058004070030020DC
:103B8000A086010000B58DB0002009900A900B902E
:103B90000C90079008901C216846FCF7C5FB4FF07D
:103BA00080402449086095204860002121488160B8
:103BB00044F61F61C160002101618161FEF7DEFBF7
:103BC00008B1FCF79EFF4FF48050099009A91948ED
:103BD000FEF77EFC08B1FCF794FF1648FEF7A9FE3D
:103BE00008B1FCF78EFF00200790089007A9114844
:103BF000FEF776FB08B1FCF784FF6020009040F2EE
:103C0000DC5001900020029004900022694609488F
:103C1000FEF70DFE08B1FCF774FF04226946054863
:103C2000FEF705FE08B1FCF76CFF0248FEF78EFDBB
:103C30000DB000BDC403002000B58DB00020099078
:103C40000A900B900C90079008901C216846FCF796
:103C50006BFB2D482D4908606320486000212B48EC
:103C6000816044F61F61C160002101618161FEF73E
:103C700085FB08B1FCF745FF4FF48050099009A976
:103C80002248FEF725FC08B1FCF73BFF1F48FEF772
:103C900050FE08B1FCF735FF00200790089007A9F7
:103CA0001A48FEF71DFB08B1FCF72BFF60200090BF
:103CB00040F2DC50019000200290049000226946FE
:103CC0001248FEF7B4FD08B1FCF71BFF0422694659
:103CD0000E48FEF7ACFD08B1FCF713FF0822694659
:103CE0000A48FEF7A4FD08B1FCF70BFF0C22694659
:103CF0000648FEF79CFD08B1FCF703FF0348FEF7FA
:103D000025FD0DB000BD0000000400400C040020A3
:103D100010B50B480B4908604FF41650486000215D
:103D200008488160C16001610C214161002181610D
:103D3000C161FFF73DF808B1FCF7E3FE10BD0000DC
:103D4000001001405404002010B50A480A490860D8
:103D50000A484860002108488160C16001610C2167
:103D6000416100218161C161FFF722F808B1FCF7D0
:103D7000C8FE10BD004400409C04002020A10700A4
:103D800010B50B480B4908604FF4165048600021ED
:103D900008488160C16001610C214161002181619D
:103DA000C161FFF705F808B1FCF7ABFE10BD0000DC
:103DB00000140140E404002000BFFEE700BFFEE75E
:103DC00010B500222EE0362806D039280BD03C282A
:103DD00010D03F281CD114E0144B1B7843F0010392
:103DE000124C23701BE0114B1B7843F002030F4C65
:103DF000237014E00D4B1B7843F008030B4C237029
:103E00000DE00A4B1B7843F00403084C237006E0D6
:103E1000064B1B7843F08003044C237000BF00BFA7
:103E2000401C521C8A42CED310BD0000AC000020C2
:103E300070B504460D46AAB221460248FFF7D0F9F4
:103E400070BD00005404002010B50B464360826032
:103E5000DFED1F0AB4EEE00AF1EE10FA04DDDFED4B
:103E60001D0AB0EE600A0AE0DFED1B0AB4EEE00ABC
:103E7000F1EE10FA03D2DFED180AB0EE600ADFEDC2
:103E8000140A80EE201ADFED150AF2EE041A41EE54
:103E9000210AFDEEE00A10EE904A21B280ED000A00
:103EA00084681CB944682468616310E08468042C49
:103EB00003D144682468A16309E08468082C03D115
:103EC00044682468E16302E044682468216410BD0A
:103ED0000000704200000000000070C20080BB447F
:103EE00000BF012000F0C0FFFBE7000010B500BFDD
:103EF000502080F31188BFF34F8FBFF36F8F00BF47
:103F000001F00AFE18B14FF080500449086000BF6C
:103F1000002080F3118800BF10BD000004ED00E018
:103F200000B593B0302107A8FCF7FEF9142102A8D0
:103F3000FCF7FAF900BF002001902448006840F027
:103F40008050224908600846006800F080500190C7
:103F500000BF00BF00BF002001901D48006840F472
:103F600040401B4908600846006800F4404001904A
:103F700000BF00BF0220079001200A9010200B9084
:103F800002200D9000210E9108210F9164211091C3
:103F9000022111910421129107A8FDF751FF08B1E8
:103FA000FCF7AFFD0F200290022003900020049048
:103FB0004FF48050059000200690032102A8FDF7E1
:103FC000DDFD08B1FCF79DFD13B000BD4038024097
:103FD000007000400348006840F470000149086028
:103FE0007047000088ED00E010B50248FEF7F7FAD0
:103FF00010BD00004C06002010B50268224B98420C
:104000000BD0B0F1804F08D0204B984205D0204B08
:10401000984202D01F4B984203D122F070024B68A5
:104020001A43194B984214D0B0F1804F11D0174B5E
:1040300098420ED0164B98420BD0164B984208D09F
:10404000154B984205D0154B984202D0144B98421C
:1040500003D122F44072CB681A4322F080034C69EA
:1040600043EA04028B68C3620B688362064B984282
:1040700001D10B690363036843F004030360012368
:104080004361026010BD00000000014000040040D8
:1040900000080040000C0040004001400044014086
:1040A0000048014030B501F01F05012404FA05F372
:1040B000046A9C430462046A01F01F0502FA05F5D4
:1040C0002C43046230BD30B50C46816821F47F4139
:1040D00042EA032525432943816030BD0A468168B1
:1040E00021F0700142F0070319438160704700001E
:1040F00030B5026A056A25F00105056243688469E6
:1041000024F0700424F003040D682C4322F0020212
:104110008D682A430D4DA84206D100BF22F0080247
:10412000CD682A4322F00402084DA84207D123F4A7
:10413000807323F400734D692B438D692B434360D7
:1041400084614D684563026230BD0000000001409B
:1041500030B5026A056A25F0100505624368846976
:1041600024F4E04424F440740D6844EA052422F069
:1041700020028D6842EA05120E4DA84207D100BF09
:1041800022F08002CD6842EA051222F04002094D79
:10419000A84209D123F4806323F400634D6943EA04
:1041A00085038D6943EA8503436084614D688563B7
:1041B000026230BD0000014030B5026A056A25F494
:1041C000807505624368C46924F0700424F0030418
:1041D0000D682C4322F400728D6842EA05220F4DCF
:1041E000A84207D100BF22F40062CD6842EA05224E
:1041F00022F48062094DA84209D123F4805323F4AC
:1042000000534D6943EA05138D6943EA0513436082
:10421000C4614D68C563026230BD0000000001400A
:1042200030B5036A056A25F4805505624468C269A1
:1042300022F4E04222F440720D6842EA052223F49F
:1042400000538D6843EA0533064DA84204D124F497
:1042500080444D6944EA85144460C2614D68056438
:10426000036230BD0000014030B50B461446026ABF
:10427000056A25F001050562816921F0F00141EA36
:10428000041122F00A021A438161026230BD30B586
:104290000B461446026A056A25F01005056281691D
:1042A00021F4704141EA043122F0A00242EA0312F3
:1042B0008161026230BD70B50446A56B0020E885BF
:1042C0002846FEF7EFFB70BD70B506460025B46BBF
:1042D00020684069C0F3C01594F84100212805D139
:1042E00025B10020E084204600F0C8F8206840692D
:1042F000C0F3801594F84200222805D125B1002092
:10430000E085204600F074F8606C40F010006064B6
:104310002046FEF7C7FB70BD70B50546AC6B28683C
:10432000006800F48070002842D1E08500BF00BF23
:1043300021680C3151E8001F21F4807021680C3194
:1043400041E80002002AF3D100BF00BF00BF21688E
:10435000143151E8001F21F001002168143141E8B7
:104360000002002AF3D100BF00BF00BF2168143152
:1043700051E8001F21F040002168143141E800029B
:10438000002AF3D100BF202084F84200206B0128CE
:104390000ED100BF00BF21680C3151E8001F21F091
:1043A000100021680C3141E80002002AF3D100BF5F
:1043B00000206063206B012804D1A18D2046FEF708
:1043C00070FB02E02046FEF78BFE70BD70B505461F
:1043D000AC6B01206063206B012805D1A08D4108E2
:1043E0002046FEF75EFB02E02046FEF799FE70BD18
:1043F00000BF00BF02680C3252E8002F22F4907117
:1044000002680C3242E80013002BF3D100BF00BF5A
:1044100000BF0268143252E8002F22F00101026846
:10442000143242E80013002BF3D100BF016B0129C5
:104430000ED100BF00BF02680C3252E8002F22F0FC
:10444000100102680C3242E80013002BF3D100BFC8
:10445000202180F8421000210163704710B5044606
:104460002068C06820F040002168C860202084F8DF
:1044700041002046FEF7D0FE002010BD00BF00BF67
:1044800002680C3252E8002F22F0C00102680C32A0
:1044900042E80013002BF3D100BF202180F8411027
:1044A0007047F8B504460025002694F842002228FB
:1044B00073D1A068B0F5805F0BD1206948B9A66AB6
:1044C00020684068C0F308003080A06A801CA062A9
:1044D00014E0A56AA068B0F5805F03D0A06828B991
:1044E000206918B920684068287004E02068406896
:1044F00000F07F002870A06A401CA062E08D401E82
:1045000080B2E085002846D12068C06820F02000F5
:104510002168C8602068C06820F480702168C86085
:104520002068406920F0010021684861202084F85B
:10453000420000206063206B012826D10020206308
:1045400000BF00BF21680C3151E8001F21F01000AE
:1045500021680C3141E80002002AF3D100BF206835
:10456000006800F0100010280AD100BF0020009061
:1045700020680068009020684068009000BF00BF7D
:10458000A18D2046FEF78DFA02E02046FEF7A8FD39
:104590000020F8BD01E00020FBE70220F9E7000061
:1045A0002DE9F84F04462068006920F44050E16886
:1045B0000843216808612169A068084361690843CC
:1045C000E169084300902068C06849F20C618843A3
:1045D000009908432168C8602068406920F4407051
:1045E000A16908432168486176492068884203D060
:1045F00075492068884203D1FDF7BAFB814602E085
:10460000FDF7A6FB8146E069B0F5004F6CD10220B2
:104610006168A0FB015003461920A9FB0070014608
:104620002A463846FBF736FE6421B0FBF1F04FEA2C
:10463000001A02206168A0FB01510B461920A9FB5A
:1046400000712A463846FBF725FE83460220616842
:10465000A0FB015003461920A9FB00712A463846E9
:10466000FBF718FE6421B0FBF1F000EBC00101EB99
:104670000010ABEB8000322101EBC0006421B0FBE5
:10468000F1F000F0F8000AEB400A02206168A0FB9C
:10469000015003461920A9FB007001462A463846FE
:1046A000FBF7F8FD834602206168A0FB015003463A
:1046B0001920A9FB00712A463846FBF7EBFD64215F
:1046C000B0FBF1F000EBC00101EB0010ABEB8000A0
:1046D000322101EBC0006421B0FBF1F000F00700D3
:1046E0005044216888606AE004206168A0FB0150A2
:1046F00003461920A9FB007001462A463846FBF7FD
:10470000C9FD824604206168A0FB015003461920C0
:10471000A9FB007001462A463846FBF7BBFD642121
:10472000B0FBF1F000EBC00101EB0010AAEB800040
:10473000322101EB00106421B0FBF1F000F0F00A2F
:1047400004206168A0FB017003461920A9FB0051F9
:104750003A462846FBF79EFD6421B0FBF1F00AEBD8
:10476000001A04206168A0FB01510B461920A9FB27
:1047700000712A463846FBF78DFD834604206168A8
:10478000A0FB015003461920A9FB007001462A46F0
:104790003846FBF77FFD6421B0FBF1F000EBC00170
:1047A00001EB0010ABEB8000322101EB0010642123
:1047B000B0FBF1F000F00F00504421688860BDE8C4
:1047C000F88F0000001001400014014077B581B05F
:1047D000044615460298A062A58500206064222048
:1047E00084F842002C48E16BC8632C48E16B0864F4
:1047F0002B48E16BC8640020E16B086502AE3268AB
:104800002368191D2B46E06BFCF7BAFB38B110206A
:104810006064202084F84200012004B070BD00BF15
:104820000020009020680068009020684068009098
:1048300000BF00BF206970B100BF00BF21680C310C
:1048400051E8001F41F4807021680C3141E80002FA
:10485000002AF3D100BF00BF00BF2168143151E826
:10486000001F41F001002168143141E80002002AD4
:10487000F3D100BF00BF00BF2168143151E8001F11
:1048800041F040002168143141E80002002AF3D1D0
:1048900000BF0020C1E7000019430008CD43000815
:1048A000C942000810B5034699629A85DA8500204E
:1048B0005864222083F84200186928B11868C0683B
:1048C00040F480701C68E0601868406940F00100A6
:1048D0001C6860611868C06840F020001C68E060D7
:1048E000002010BD014691F84100212828D1886898
:1048F000B0F5805F0BD1086948B90A6A1088C0F327
:1049000008000B685860086A801C086205E00B6AA2
:10491000581C086218780B685860C88C401E80B21A
:10492000C88458B90868C06820F080000B68D86057
:104930000868C06840F040000B68D86000207047ED
:104940000220FCE72DE9F84304460D461746984639
:10495000089E31E0701C70B3FCF75AFCA0EB080015
:10496000B04200D816B90320BDE8F8832068C068BB
:1049700000F00400F8B1802D1ED0402D1CD020681E
:104980000068C0F3C000B0B100BF002000902068F4
:104990000068009020684068009000BF00BF20467B
:1049A000FFF726FD0820606400BF002084F8400067
:1049B00000BF0120D8E7FFE7206800682840A84230
:1049C00001D1012000E00020B842C3D00020CBE795
:1049D00010B50248FEF768F810BD0000540400202E
:1049E00010B50248FEF760F810BD00009C040020DE
:1049F00000BFFEE710B5042202490348FEF744FB5E
:104A000010BD0000B3000020E4040020017810294C
:104A10000CD1417809B1012100E00021044A117054
:104A2000817849B25170C17849B2917070470000E5
:104A3000B700002008B5014608788DF800004878D6
:104A40008DF8010088788DF80200BDF8002010462E
:104A50009DF8022040EA024008BD0000014611B95D
:104A60006FF005007047024801600020FAE700007F
:104A7000980000200246032A02D96FF00500704713
:104A800004480260044801700020044B186000BF15
:104A9000F5E70000A40000209C000020A0000020FA
:104AA000014611B96FF0050070470248016000200F
:104AB000FAE70000940000202DE9FC41804672488E
:104AC000006808B9BDE8FC81704801680068401CB6
:104AD0006E4A10606E4800F801806E48006830B180
:104AE000012859D0022874D0032854D1BCE068486A
:104AF000007855280CD065480068401E634908605E
:104B000008466349491C0268481EFBF7F4FBD9E7D5
:104B10005E4800680B283ED30A215D4800F0E8F8A3
:104B200007465B48807AB8420CD058480068401E5F
:104B30005649086008465649491C0268481EFBF75A
:104B4000DAFBBFE7524880785149C97840EA012032
:104B5000ADF800004E4800794D49497940EA0120FE
:104B6000ADF802004A4880794949C97940EA0120F4
:104B7000ADF804004648007A4549497A40EA0120E8
:104B8000ADF806004249487804226946FBF75CFE0E
:104B900000203E4908606BE03C480068022861D96B
:104BA0003B48407803280CD038480068401E3749FD
:104BB000086008463649491C0268481EFBF79BFB03
:104BC00080E733488078401D30490968884201D920
:104BD00078E748E02D480068401E2D49095C2B48C5
:104BE0000068801E2A4A105C41EA00252748008898
:104BF000801E81B2104600F05FF80646B5420CD028
:104C000022480068401E2149086008462049491C86
:104C10000268481EFBF76FFB54E71D48807845107B
:104C2000002414E0042000EB44001949085C03212F
:104C300001EB4401164A515C40EA012000B21649DA
:104C400009682144154A22F81100601C84B2AC4264
:104C5000E8DB2946104800680B4A1268904700209C
:104C60000A49086004E000BF00200849086000BF4E
:104C700000BF06480068B0F5807F02D100200349DC
:104C8000086000BF1EE7000094000020A000002084
:104C900084430020A4000020A800002084440020B9
:104CA000014611B96FF0050070470248016000200D
:104CB000FAE700008400002070B503460C46FF258B
:104CC000FF26002200BF00BF09E0985C80EA0501D2
:104CD0000548405C80EA06050448465C521CA24236
:104CE000F3DB46EA052070BDD85D0008D85E0008F9
:104CF00010B502460B460020002103E0545C04443A
:104D0000E0B2491C9942F9D310BD00000248006886
:104D1000C0F30220704700000CED00E010B5002841
:104D200004DB0A07130E054A135406E00A07140EA3
:104D3000034A00F00F031B1FD45410BD00E400E031
:104D400018ED00E002E008C8121F08C1002AFAD1DD
:104D500070477047002001E001C1121F002AFBD1FB
:104D60007047FBF797FE00BFFBF784FEFBF7A2FE40
:104D70001020FBF731FB052000F076F8F4E7000087
:104D8000FBF7C2FE00BF4FF4617008490968486331
:104D900006490968886306490968C86304490968BF
:104DA0000864012000F060F8EDE70000C403002073
:104DB0000C040020FCF7E4FDFFF7B2F8FEF75AFE02
:104DC000FEF7ECFDFEF7DEFEFEF736FFFEF7A0FF76
:104DD000FEF7BAFFFEF79AFEFEF7B6FEFEF7D0FF2B
:104DE000FEF718FE00F04CF800BFFEE70146002079
:104DF000842901D0CA1C104470470000F0B50B3064
:104E0000154D20F007010024144A0FE003688B427F
:104E10000BD38B4205D95E1A43184768C3E9006774
:104E200000E04368136002C004E0021D106800281F
:104E3000ECD12046002802D1286808B10020F0BD3E
:104E4000064A07481060074A121A22F00702C0E912
:104E5000002401202860D7E7C4000020C000002003
:104E6000CC460020C848002070B5044625460DB148
:104E7000294600E00121084600F036FC002070BD04
:104E800010B500F05FFC002010BD7FB504460D4654
:104E9000606998B1A06988B1B4F90800FFF7A6FF6E
:104EA0000646D4E90510CDE9006102902B4622693F
:104EB000D4E9001000F0D2FD039013E0B4F908002B
:104EC000FFF794FF064603A8CDE90060238A9AB253
:104ED0002B46D4E9001000F08FFD012802D00020FD
:104EE00004B070BD0398FBE72DE9F04105460E467E
:104EF0001C4807681C480068001D00F0F1FA50B912
:104F00001948006890F82C1001208840174909685A
:104F1000814316480160681C38B936B112480168EF
:104F2000091D134800F026FB1AE07C190E480068A2
:104F30004460BC4207D20C480168091D0D48006856
:104F400000F0FEFA0CE008480168091D0A480068F4
:104F500000F0F6FA09480068844201D2074804606C
:104F6000BDE8F081300000201C000020340000204B
:104F70007007002024000020200000204C000020AA
:104F800010B5044600F002FB23480068401C22498B
:104F900008602248006840B920480460084600685C
:104FA00001280DD100F03EF90AE01D48006838B92B
:104FB0001A480068C06AE16A884201D8174804604C
:104FC00018480068401C1749086094F82C1001200C
:104FD000884015490968084313490860E16A01EBF4
:104FE0008101124A02EB8100211D00F0C3FA00F09A
:104FF000F7FA0B48006868B108480068C06AE16ABF
:10500000884207D24FF0805009490860BFF34F8FA4
:10501000BFF36F8F10BD00002C0000201C0000208B
:1050200038000020480000203400002094060020B2
:1050300004ED00E010B516E000F0A8FA0C48C068D6
:10504000C468201D00F04CFA0A480068401E094957
:10505000086009480068401E0749086000F0C0FA6F
:10506000204600F00BF8044800680028E4D110BD89
:105070005C0700202C0000202800002010B504460A
:1050800094F8510030B9206B00F0C8FA204600F0C7
:10509000C5FA1AE094F85100012803D1204600F027
:1050A000BDFA12E094F85100022801D1012000E07D
:1050B000002050B900BF502080F31188BFF34F8FFC
:1050C000BFF36F8F00BF00BFFEE710BD30B54FF4D8
:1050D0007053174800F007042CB1C01D20F00700E2
:1050E000134C041B1B1B0246124C22600024114D62
:1050F0006C60D018083820F007000F4C20600024A6
:105100000D4D2D686C600C4D2D682C601146441AB5
:105110004C60094C24680C60084D4C682C60084DAC
:105120004C682C604FF00044064D2C6030BD0000F0
:105130008407002058000020600000206800002044
:10514000640000207400002000BFFFF773FF0648D2
:1051500000680128F9D94FF0805004490860BFF376
:105160004F8FBFF36F8FF0E79406002004ED00E04F
:105170002DE9FF5F81460E469246DDE90E7B109CCD
:10518000AAF10100216B01EB800828F0070808F064
:10519000070008B9012000E0002050B900BF5020EE
:1051A00080F31188BFF34F8FBFF36F8F00BF00BF35
:1051B000FEE786B1002507E0715D04F1340041553A
:1051C000705D00B902E06D1C102DF5D300BF002109
:1051D0004320015502E0002084F83400072F00D35B
:1051E0000627E76267640020A064201D00F0A5F98F
:1051F00004F1180000F0A1F92461C7F10700A061D3
:1052000064620020E06484F8500049464046039AF6
:1052100000F050F92060BBF1000F01D0CBF8004046
:10522000BDE8FF9F10B5002407E004EB84010F4A9E
:1052300002EB810000F074F9641C072CF5D30C48D4
:1052400000F06EF90B4800F06BF90B4800F068F9BC
:105250000A4800F065F90A4800F062F90448094973
:10526000086004480849086010BD0000940600204A
:105270002007002034070020480700205C0700209A
:1052800070070020200000202400002010B50146F7
:10529000164800E0006803688B42FBD3024643686F
:1052A00013448B4204D143684C6823444360014655
:1052B0000A464B6813440468A34211D10C4C03689E
:1052C0002468A34208D04B680468646823444B6098
:1052D00003681B680B6005E0054B1B680B6001E071
:1052E00003680B60884200D0016010BD58000020A8
:1052F000600000200A490968096809B9012100E035
:10530000002121B14FF0FF31064A116006E0044947
:105310000968C968C868034A41681160704700009D
:10532000200000204C0000200E480068401C08B9F6
:10533000012000E0002050B900BF502080F3118808
:10534000BFF34F8FBFF36F8F00BF00BFFEE700BFFB
:10535000502080F31188BFF34F8FBFF36F8F00BFD2
:1053600000BFFEE7780000202DE9F04104464FF031
:10537000000800F03FFA4948006808B9FFF7A6FEA8
:10538000474800682040002870D1D4B1083404F0A8
:105390000700B0B104F00700C0F10800044404F0B5
:1053A000070008B9012000E0002050B900BF5020DC
:1053B00080F31188BFF34F8FBFF36F8F00BF00BF23
:1053C000FEE7002C52D03748006884424ED8364E53
:1053D0003046056801E02E462D686868A04202D27A
:1053E00028680028F7D12D48006885423ED03068F3
:1053F00000F10808286830606868001B102819D977
:105400002F1907F0070008B9012000E0002050B96B
:1054100000BF502080F31188BFF34F8FBFF36F8F11
:1054200000BF00BFFEE76868001B78606C6038460C
:10543000FFF72CFF1B4968680968081A19490860BA
:105440000846006819490968884203D2154800686F
:1054500016490860124968680968084368600020B6
:10546000286013480068401C1149086000F0F8FBF0
:1054700008F0070008B9012000E0002050B900BF83
:10548000502080F31188BFF34F8FBFF36F8F00BFA1
:1054900000BFFEE74046BDE8F0810000600000204C
:1054A00074000020640000205800002068000020E4
:1054B0006C000020001F4FF080730360001F21F07C
:1054C00001030360001F054B036014380260001FD6
:1054D0006FF0020303602038704700002953000872
:1054E00001460A69D1E901309860D1E901035860A9
:1054F0005068884201D188685060002008611068B7
:10550000401E106010687047034B0360034B0B6034
:105510008023136070470000C80000201C01002099
:1055200000F1080141604FF0FF31816000F1080196
:10553000C160016100210160704700210161704775
:1055400010B502460B685C1C0CB9106907E002F14B
:10555000080000E04068446824689C42FAD9446826
:105560004C604C68A160886041600A611468641CEA
:10557000146010BD42684A6093688B6093685960FC
:105580009160086103685B1C0360704700BF502096
:1055900080F31188BFF34F8FBFF36F8F00BF0E48AA
:1055A0000068401C0C49086008460068012812D1B8
:1055B0000A480068C0B208B9012000E0002050B9D4
:1055C00000BF502080F31188BFF34F8FBFF36F8F60
:1055D00000BF00BFFEE770477800002004ED00E048
:1055E0000D48006850B900BF502080F31188BFF308
:1055F0004F8FBFF36F8F00BF00BFFEE70648006804
:10560000401E054908600846006820B9002080F364
:10561000118800BF00BF70477800002070B50646B3
:105620003546002E44D0083D2C4622496068096862
:10563000084008B1012000E0002050B900BF502010
:1056400080F31188BFF34F8FBFF36F8F00BF00BF90
:10565000FEE7206808B9012000E0002050B900BF33
:10566000502080F31188BFF34F8FBFF36F8F00BFBF
:1056700000BFFEE70F49606809680840C0B12068B4
:10568000B0B90C49606809688843606000F0B2F8FE
:105690000949606809680844074908602046FFF71F
:1056A000F5FD06480068401C0449086000F0D8FA7F
:1056B00070BD000074000020640000207000002015
:1056C00000204FF0E02108618861064800684FF42F
:1056D0007A71B0FBF1F0401E4FF0E02148610720E5
:1056E000086170471800002070B504460025D4B149
:1056F0001248006808B9012000E0002050B900BF3E
:10570000502080F31188BFF34F8FBFF36F8F00BF1E
:1057100000BFFEE700F06EF800212046FFF7E4FB33
:1057200000F09EFA05463DB94FF0805004490860EC
:10573000BFF34F8FBFF36F8F70BD00005400002088
:1057400004ED00E010B586B000200590049003AA97
:1057500004A905A8FFF7D8FE0022DDE904101346CE
:10576000CDE9002102901CA11D48039A00F076F9B2
:105770001C4908600846006808B1012400E00024C4
:10578000012C15D100BF502080F31188BFF34F8F3B
:10579000BFF36F8F00BF4FF0FF3013490860012047
:1057A0001249086000201249086000F071F810E00A
:1057B000601C08B1012000E0002050B900BF50205B
:1057C00080F31188BFF34F8FBFF36F8F00BF00BF0F
:1057D000FEE706B010BD000049444C450000000043
:1057E00049510008500000204C00002038000020E3
:1057F0003000002002480068401C014908607047E2
:10580000540000201D48006818B101201C490860A0
:1058100032E000201A4908601A480068B0FA80F0A7
:10582000C0F11F0101EB8100174A52F8200008B1B6
:10583000012000E0002050B900BF502080F3118803
:10584000BFF34F8FBFF36F8F00BF00BFFEE701EBC9
:1058500081020D4B03EB820042685268426000F106
:1058600008024368934202D142685268426042682B
:10587000D268064B1A6000BF704700005400002039
:105880004000002034000020940600201C0000206E
:105890001CB5524800685249884201D0012000E0FE
:1058A000002050B900BF502080F31188BFF34F8F04
:1058B000BFF36F8F00BF00BFFEE74848006848494C
:1058C000491E884201D0012000E0002050B900BFED
:1058D000502080F31188BFF34F8FBFF36F8F00BF4D
:1058E00000BFFEE73F49084600780190FF200A46C6
:1058F00010700846007800909DF8000000F0F0005D
:105900009DF80020904201D1012000E0002050B914
:1059100000BF502080F31188BFF34F8FBFF36F8F0C
:1059200000BF00BFFEE79DF8000000F050002E4AC7
:10593000107007202D4A106009E02C480068401EB6
:105940002A4A10609DF800004006000E00909DF865
:10595000000000F080008028EFD024480068C0F1EB
:105960000700042801D1012000E0002050B900BF49
:10597000502080F31188BFF34F8FBFF36F8F00BFAC
:1059800000BFFEE7194800680002184A1060104680
:10599000008800F4E0601060124A019810700F480F
:1059A0002030006840F470000C492031086008463F
:1059B000006840F070400860FFF782FE00200C494C
:1059C0000860FAF719FC0B48006840F040400949AC
:1059D0000860FAF7FDFB00201CBD000000ED00E0B0
:1059E00071C20F4100E400E07C0000208000002034
:1059F0007800002034EF00E02DE9FF4F85B08046AD
:105A000089461746DDE912ABB800FFF7ADFC064644
:105A100056B15420FFF7A8FC04460CB1266304E0FD
:105A20003046FFF7FBFD00E000248CB1002084F835
:105A30005100CDE900ABCDE902403A464946404627
:105A4000089BFFF795FB2046FFF79AFA012501E036
:105A50004FF0FF35284609B0BDE8F08F2DE9F04F33
:105A600085B00746884691469A46DDE90EB6109CF9
:105A70000EB1012000E0002050B900BF502080F39B
:105A80001188BFF34F8FBFF36F8F00BF00BFFEE7DA
:105A90000CB1012000E0002050B900BF502080F37D
:105AA0001188BFF34F8FBFF36F8F00BF00BFFEE7BA
:105AB000542003900398542801D1012000E00020D5
:105AC00050B900BF502080F31188BFF34F8FBFF350
:105AD0006F8F00BF00BFFEE700BFB4B1AEB1254677
